:100000000C9462000C948A000C948A000C948A0070
:100010000C948A000C948A000C948A000C948A0038
:100020000C948A000C948A000C948A000C948A0028
:100030000C948A000C948A000C948A000C948A0018
:100040000C942C030C948A000C948A000C948A0063
:100050000C948A000C948A000C948A000C948A00F8
:100060000C948A000C948A000000000024002700F1
:100070002A0000000000250028002B0000000000DE
:1000800023002600290004040404040404040202DA
:100090000202020203030303030301020408102007
:1000A0004080010204081020010204081020000012
:1000B0000008000201000003040700000000000027
:1000C0000000080511241FBECFEFD8E0DEBFCDBF72
:1000D00011E0A0E0B1E0ECE5FAE002C005900D927D
:1000E000A836B107D9F721E0A8E6B1E001C01D921A
:1000F000AB38B207E1F710E0C2E6D0E004C02197C8
:10010000FE010E942605C136D107C9F70E94760379
:100110000C942C050C940000AF92BF92CF92DF920A
:10012000EF92FF920F931F93CF93DF936C017B01AC
:100130008B01040F151FEB015E01AE18BF08C0173D
:10014000D10759F06991D601ED91FC910190F081B0
:10015000E02DC6010995892B79F7C501DF91CF9173
:100160001F910F91FF90EF90DF90CF90BF90AF90D5
:100170000895833081F028F4813099F08230A9F01D
:1001800008958730A9F08830C9F08430B1F48091A7
:1001900080008F7D03C0809180008F7780938000E6
:1001A000089584B58F7784BD089584B58F7DFBCF86
:1001B0008091B0008F778093B00008958091B00057
:1001C0008F7DF9CFCF93DF93282F30E0F901E255EF
:1001D000FF4F8491F901E656FF4FD491F901EA5798
:1001E000FF4FC491CC23A1F081110E94B900EC2FE4
:1001F000F0E0EE0FFF1FE458FF4FA591B491EC9192
:10020000ED2381E090E009F480E0DF91CF91089543
:1002100080E090E0FACF1F93CF93DF93282F30E058
:10022000F901E255FF4F8491F901E656FF4FD49151
:10023000F901EA57FF4FC491CC23A9F0162F811181
:100240000E94B900EC2FF0E0EE0FFF1FEE58FF4FB9
:10025000A591B4918FB7F894EC91111108C0D09585
:10026000DE23DC938FBFDF91CF911F910895DE2BAA
:10027000F8CFCF93DF9390E0FC01E656FF4F249137
:100280008A579F4FFC0184918823D1F090E0880F1A
:10029000991FFC01E859FF4FA591B491FC01EE585C
:1002A000FF4FC591D49161110EC09FB7F8948C9106
:1002B000E22FE0958E238C932881E223E8839FBF71
:1002C000DF91CF9108958FB7F894EC91E22BEC93E6
:1002D0008FBFF6CF3FB7F89480916D0190916E017A
:1002E000A0916F01B091700126B5A89B05C02F3F6A
:1002F00019F00196A11DB11D3FBFBA2FA92F982F4C
:100300008827BC01CD01620F711D811D911D42E046
:10031000660F771F881F991F4A95D1F708958F920E
:100320009F92AF92BF92CF92DF92EF92FF920E9484
:100330006A014B015C018CE2C82EDD24D394E12CD0
:10034000F12C0E946A01681979098A099B09683EA3
:10035000734081059105A8F321E0C21AD108E10894
:10036000F10888EE880E83E0981EA11CB11CC11410
:10037000D104E104F10429F7FF90EF90DF90CF90D2
:10038000BF90AF909F908F900895089590E080E087
:100390000895FC0101900020E9F73197AF01481B57
:1003A000590BBC0183E791E00C948C00CF93DF9351
:1003B000EC0160E08E810E940B0161E08E810E9461
:1003C0000B0160E08E810E940B018BE891E00197A8
:1003D000F1F7DF91CF910895CF92DF92EF92FF92E4
:1003E0000F931F93CF93DF936C017C0187E0E80E9E
:1003F000F11CD0E0C0E0062F10E0B8010C2E02C0C6
:10040000759567950A94E2F76170F70181917F0114
:100410000E940B012196C430D10579F7C601DF9106
:10042000CF911F910F91FF90EF90DF90CF900C94A0
:10043000D601CF92DF92EF92FF920F931F93CF934B
:10044000DF93EC01F62E642F8C810E940B018D81CD
:100450008F3F19F060E00E940B010F2D10E08F8597
:1004600084FF25C06E0187E0C80ED11CF12CE12C61
:10047000B8010E2C02C0759567950A94E2F7617079
:10048000F60181916F010E940B01FFEFEF1AFF0A45
:1004900088E0E816F10461F7CE01DF91CF911F915A
:1004A0000F91FF90EF90DF90CF900C94D601B801A0
:1004B00084E0759567958A95E1F7CE010E94EC017D
:1004C0006F2DCE01DF91CF911F910F91FF90EF9093
:1004D000DF90CF900C94EC0140E0682F83E791E02F
:1004E0000C941902CF93DF93823029F4909182010A
:1004F000986090938201809386011092870180E436
:100500008093880180E18093890180E580938A014E
:1005100061E0809177010E943901809178018F3FDD
:1005200019F061E00E94390161E0809179010E9437
:100530003901C3E7D1E09E01235731408091820108
:1005400084FD0BC084E090E021962817390744F41D
:1005500061E08E810E943901EECF88E090E0F4CF17
:100560008BE39DE00197F1F760E0809177010E94B5
:100570000B0160E0809179010E940B01809178016C
:100580008F3F19F060E00E940B018091820184FD91
:1005900039C063E083E791E00E94EC01CBE4D6E44C
:1005A000CE010197F1F763E083E791E00E94EC014F
:1005B0002197F1F763E083E791E00E94EC0183E586
:1005C00092E00197F1F762E083E791E00E94EC018D
:1005D0008091820180620E946C0284E0809383019A
:1005E0008CE00E946C0281E00E946C028BE39FE130
:1005F0000197F1F782E08093840186E0DF91CF914B
:100600000C946C0280620E946C028BE496E4019769
:10061000F1F78091820180620E946C0283E592E092
:100620000197F1F78091820180620E946C02D0CF25
:10063000E0918601E23040F4E150F0E0ED58FE4FE9
:10064000848980680C946C02E1E0F7CF41E00E945D
:10065000190281E090E008951F920F920FB60F9259
:1006600011242F933F938F939F93AF93BF938091C8
:10067000690190916A01A0916B01B0916C01309178
:10068000680123E0230F2D3758F50196A11DB11DF8
:10069000209368018093690190936A01A0936B0194
:1006A000B0936C0180916D0190916E01A0916F01EA
:1006B000B09170010196A11DB11D80936D019093C1
:1006C0006E01A0936F01B0937001BF91AF919F91A4
:1006D0008F913F912F910F900FBE0F901F90189503
:1006E00026E8230F0296A11DB11DD2CF789484B5C0
:1006F000826084BD84B5816084BD85B5826085BD1E
:1007000085B5816085BD80916E00816080936E00AB
:10071000109281008091810082608093810080919D
:10072000810081608093810080918000816080934E
:1007300080008091B10084608093B1008091B0000E
:1007400081608093B00080917A00846080937A0009
:1007500080917A00826080937A0080917A00816033
:1007600080937A0080917A00806880937A0010925A
:10077000C10060E088E00E94390161E089E00E94E8
:10078000390161E08AE00E94390160E08BE00E945B
:10079000390161E08CE00E94390161E08DE00E9446
:1007A000390161E080E00E94390161E081E00E944E
:1007B000390160E08EE00E94390161E08CE00E9426
:1007C0000B0182E00E94720284E191E00E94C90163
:1007D0000E9418038FE191E00E94C9018BE3C82EAB
:1007E0008FE1D82E90E0E92E90E0F92E88E00E946B
:1007F000E2008BE00E94E20088E00E94E2008C01AF
:10080000019789F4C0910601D09107012196D093F8
:100810000701C09306010E948F01249724F01093D2
:100820000701009306018BE00E94E2008C01019712
:1008300089F4C0910401D09105012196D09305015E
:10084000C09304010E948F01259724F010930501A5
:10085000009304010091040110910501023011057B
:1008600009F49AC00CF072C00130110509F483C07C
:10087000C0910601D0910701C230D10509F49CC096
:10088000C330D10509F49EC0C130D10541F460E008
:1008900089E00E940B0160E08AE00E940B018091D8
:1008A000020190910301C817D90719F081E08093E4
:1008B000720180910001909101010817190719F048
:1008C00081E08093710180917201811104C0809157
:1008D0007101882301F181E00E946C02C601019739
:1008E000F1F7C230D10509F46FC0C330D10509F466
:1008F00070C084E191E0219709F468C080910401FF
:10090000909105018230910509F478C00CF064C023
:10091000019709F46CC010927201109271018091DC
:100920000401909105019093010180930001809151
:100930000601909107019093030180930201E11455
:10094000F10409F453CF0E94000050CF0330110589
:1009500049F10430110509F08BCF60E08CE00E9472
:100960000B0160E08DE00E940B0160E080E00E94DE
:100970000B0161E00DC061E08CE00E940B0160E0C2
:100980008DE00E940B0160E080E00E940B0160E0BE
:1009900081E00E940B016CCF60E08CE00E940B01B3
:1009A00061E0EECF60E08CE00E940B0160E08DE042
:1009B0000E940B0161E0E8CF60E089E00E940B013A
:1009C00061E06ACF61E0F9CF8BE291E00E94C9015A
:1009D00095CF88E391E0FACF83309105A1F0049799
:1009E00009F099CF0E9418038BE591E004C00E94A2
:1009F00018038FE191E00E94C9018DCF0E94180376
:100A000084E491E0F8CF0E94180380E591E0F3CFF1
:100A1000E3E7F1E0138212828CE091E0918380831E
:100A200082E084838FEF858383E0868384E08783FD
:100A300085E0808786E0818787E082871386148639
:100A400015861686178681E00C947202EE0FFF1F42
:0C0A50000590F491E02D0994F894FFCF7C
:100A5C0001000100010001000000000026038C00D1
:100A6C00C601C501547970653A2053696E65005210
:100A7C003A2031302D313030487A00547970653A53
:100A8C002053717561726500547970653A20547207
:100A9C0069616E00523A203130302D316B487A004A
:100AAC00523A20312D31306B487A00523A20313095
:080ABC002D3130306B487A0047
:107E0000112484B714BE81FFF0D085E080938100F7
:107E100082E08093C00088E18093C10086E0809377
:107E2000C20080E18093C4008EE0C9D0259A86E02C
:107E300020E33CEF91E0309385002093840096BBD3
:107E4000B09BFECF1D9AA8958150A9F7CC24DD24C4
:107E500088248394B5E0AB2EA1E19A2EF3E0BF2EE7
:107E6000A2D0813461F49FD0082FAFD0023811F036
:107E7000013811F484E001C083E08DD089C08234E0
:107E800011F484E103C0853419F485E0A6D080C0E4
:107E9000853579F488D0E82EFF2485D0082F10E0AE
:107EA000102F00270E291F29000F111F8ED06801E7
:107EB0006FC0863521F484E090D080E0DECF843638
:107EC00009F040C070D06FD0082F6DD080E0C81688
:107ED00080E7D80618F4F601B7BEE895C0E0D1E017
:107EE00062D089930C17E1F7F0E0CF16F0E7DF06D8
:107EF00018F0F601B7BEE89568D007B600FCFDCFD4
:107F0000A601A0E0B1E02C9130E011968C91119780
:107F100090E0982F8827822B932B1296FA010C0160
:107F200087BEE89511244E5F5F4FF1E0A038BF0790
:107F300051F7F601A7BEE89507B600FCFDCF97BE46
:107F4000E89526C08437B1F42ED02DD0F82E2BD052
:107F50003CD0F601EF2C8F010F5F1F4F84911BD097
:107F6000EA94F801C1F70894C11CD11CFA94CF0C13
:107F7000D11C0EC0853739F428D08EE10CD085E9AC
:107F80000AD08FE07ACF813511F488E018D01DD067
:107F900080E101D065CF982F8091C00085FFFCCF94
:107FA0009093C60008958091C00087FFFCCF809118
:107FB000C00084FD01C0A8958091C6000895E0E648
:107FC000F0E098E1908380830895EDDF803219F02E
:107FD00088E0F5DFFFCF84E1DECF1F93182FE3DFCA
:107FE0001150E9F7F2DF1F91089580E0E8DFEE27F6
:047FF000FF270994CA
:027FFE00040479
:0400000300007E007B
:00000001FF
