:100000000C9462000C948A000C948A000C948A0070
:100010000C948A000C948A000C948A000C948A0038
:100020000C948A000C948A000C948A000C948A0028
:100030000C948A000C948A000C948A000C948A0018
:100040000C942C030C948A000C948A000C948A0063
:100050000C948A000C948A000C948A000C948A00F8
:100060000C948A000C948A000000000024002700F1
:100070002A0000000000250028002B0000000000DE
:1000800023002600290004040404040404040202DA
:100090000202020203030303030301020408102007
:1000A0004080010204081020010204081020000012
:1000B0000008000201000003040700000000000027
:1000C0000000040511241FBECFEFD8E0DEBFCDBF76
:1000D00011E0A0E0B1E0E4E5FAE002C005900D9285
:1000E000A636B107D9F721E0A6E6B1E001C01D921E
:1000F000A938B207E1F710E0C2E6D0E004C02197CA
:10010000FE010E942205C136D107C9F70E9476037D
:100110000C9428050C940000AF92BF92CF92DF920E
:10012000EF92FF920F931F93CF93DF936C017B01AC
:100130008B01040F151FEB015E01AE18BF08C0173D
:10014000D10759F06991D601ED91FC910190F081B0
:10015000E02DC6010995892B79F7C501DF91CF9173
:100160001F910F91FF90EF90DF90CF90BF90AF90D5
:100170000895833081F028F4813099F08230A9F01D
:1001800008958730A9F08830C9F08430B1F48091A7
:1001900080008F7D03C0809180008F7780938000E6
:1001A000089584B58F7784BD089584B58F7DFBCF86
:1001B0008091B0008F778093B00008958091B00057
:1001C0008F7DF9CFCF93DF93282F30E0F901E255EF
:1001D000FF4F8491F901E656FF4FD491F901EA5798
:1001E000FF4FC491CC23A1F081110E94B900EC2FE4
:1001F000F0E0EE0FFF1FE458FF4FA591B491EC9192
:10020000ED2381E090E009F480E0DF91CF91089543
:1002100080E090E0FACF1F93CF93DF93282F30E058
:10022000F901E255FF4F8491F901E656FF4FD49151
:10023000F901EA57FF4FC491CC23A9F0162F811181
:100240000E94B900EC2FF0E0EE0FFF1FEE58FF4FB9
:10025000A591B4918FB7F894EC91111108C0D09585
:10026000DE23DC938FBFDF91CF911F910895DE2BAA
:10027000F8CFCF93DF9390E0FC01E656FF4F249137
:100280008A579F4FFC0184918823D1F090E0880F1A
:10029000991FFC01E859FF4FA591B491FC01EE585C
:1002A000FF4FC591D49161110EC09FB7F8948C9106
:1002B000E22FE0958E238C932881E223E8839FBF71
:1002C000DF91CF9108958FB7F894EC91E22BEC93E6
:1002D0008FBFF6CF3FB7F89480916B0190916C017E
:1002E000A0916D01B0916E0126B5A89B05C02F3F6E
:1002F00019F00196A11DB11D3FBFBA2FA92F982F4C
:100300008827BC01CD01620F711D811D911D42E046
:10031000660F771F881F991F4A95D1F708958F920E
:100320009F92AF92BF92CF92DF92EF92FF920E9484
:100330006A014B015C018CE2C82EDD24D394E12CD0
:10034000F12C0E946A01681979098A099B09683EA3
:10035000734081059105A8F321E0C21AD108E10894
:10036000F10888EE880E83E0981EA11CB11CC11410
:10037000D104E104F10429F7FF90EF90DF90CF90D2
:10038000BF90AF909F908F900895089590E080E087
:100390000895FC0101900020E9F73197AF01481B57
:1003A000590BBC0181E791E00C948C00CF93DF9353
:1003B000EC0160E08E810E940B0161E08E810E9461
:1003C0000B0160E08E810E940B018BE891E00197A8
:1003D000F1F7DF91CF910895CF92DF92EF92FF92E4
:1003E0000F931F93CF93DF936C017C0187E0E80E9E
:1003F000F11CD0E0C0E0062F10E0B8010C2E02C0C6
:10040000759567950A94E2F76170F70181917F0114
:100410000E940B012196C430D10579F7C601DF9106
:10042000CF911F910F91FF90EF90DF90CF900C94A0
:10043000D601CF92DF92EF92FF920F931F93CF934B
:10044000DF93EC01F62E642F8C810E940B018D81CD
:100450008F3F19F060E00E940B010F2D10E08F8597
:1004600084FF25C06E0187E0C80ED11CF12CE12C61
:10047000B8010E2C02C0759567950A94E2F7617079
:10048000F60181916F010E940B01FFEFEF1AFF0A45
:1004900088E0E816F10461F7CE01DF91CF911F915A
:1004A0000F91FF90EF90DF90CF900C94D601B801A0
:1004B00084E0759567958A95E1F7CE010E94EC017D
:1004C0006F2DCE01DF91CF911F910F91FF90EF9093
:1004D000DF90CF900C94EC0140E0682F81E791E031
:1004E0000C941902CF93DF93823029F4909180010C
:1004F000986090938001809384011092850180E43C
:100500008093860180E18093870180E58093880154
:1005100061E0809175010E943901809176018F3FE1
:1005200019F061E00E94390161E0809177010E9439
:100530003901C1E7D1E09E0121573140809180010E
:1005400084FD0BC084E090E021962817390744F41D
:1005500061E08E810E943901EECF88E090E0F4CF17
:100560008BE39DE00197F1F760E0809175010E94B7
:100570000B0160E0809177010E940B018091760170
:100580008F3F19F060E00E940B018091800184FD93
:1005900039C063E081E791E00E94EC01CBE4D6E44E
:1005A000CE010197F1F763E081E791E00E94EC0151
:1005B0002197F1F763E081E791E00E94EC0183E588
:1005C00092E00197F1F762E081E791E00E94EC018F
:1005D0008091800180620E946C0284E0809381019E
:1005E0008CE00E946C0281E00E946C028BE39FE130
:1005F0000197F1F782E08093820186E0DF91CF914D
:100600000C946C0280620E946C028BE496E4019769
:10061000F1F78091800180620E946C0283E592E094
:100620000197F1F78091800180620E946C02D0CF27
:10063000E0918401E23040F4E150F0E0EF58FE4FE9
:10064000848980680C946C02E1E0F7CF41E00E945D
:10065000190281E090E008951F920F920FB60F9259
:1006600011242F933F938F939F93AF93BF938091C8
:10067000670190916801A0916901B0916A01309180
:10068000660123E0230F2D3758F50196A11DB11DFA
:10069000209366018093670190936801A09369019C
:1006A000B0936A0180916B0190916C01A0916D01F2
:1006B000B0916E010196A11DB11D80936B019093C5
:1006C0006C01A0936D01B0936E01BF91AF919F91AA
:1006D0008F913F912F910F900FBE0F901F90189503
:1006E00026E8230F0296A11DB11DD2CF789484B5C0
:1006F000826084BD84B5816084BD85B5826085BD1E
:1007000085B5816085BD80916E00816080936E00AB
:10071000109281008091810082608093810080919D
:10072000810081608093810080918000816080934E
:1007300080008091B10084608093B1008091B0000E
:1007400081608093B00080917A00846080937A0009
:1007500080917A00826080937A0080917A00816033
:1007600080937A0080917A00806880937A0010925A
:10077000C10060E088E00E94390161E089E00E94E8
:10078000390161E08AE00E94390160E08BE00E945B
:10079000390161E08CE00E94390161E08DE00E9446
:1007A000390161E080E00E94390161E081E00E944E
:1007B000390160E08EE00E94390182E00E947202FD
:1007C00084E191E00E94C9010E9418038FE191E049
:1007D0000E94C9018BE3C82E8FE1D82E90E0E92E4C
:1007E00090E0F92E88E00E94E2008BE00E94E20097
:1007F00088E00E94E2008C01019789F4C091060113
:10080000D09107012196D0930701C09306010E9461
:100810008F01249724F010930701009306018BE0C9
:100820000E94E2008C01019789F4C0910401D091EB
:1008300005012196D0930501C09304010E948F0108
:10084000259724F010930501009304010091040101
:10085000109105010230110509F492C00CF072C02C
:100860000130110509F47BC0C0910601D091070148
:10087000C230D10509F49CC0C330D10509F49EC033
:10088000C130D10541F460E089E00E940B0160E0D5
:100890008AE00E940B018091020190910301C81728
:1008A000D90719F081E08093700180910001909147
:1008B00001010817190719F081E080936F018091F9
:1008C0007001811104C080916F01882301F181E0E2
:1008D0000E946C02C6010197F1F7C230D10509F4FC
:1008E0006FC0C330D10509F470C08AE291E021974E
:1008F00009F468C08091040190910501823091054E
:1009000009F478C00CF064C0019709F46CC010922F
:10091000700110926F0180910401909105019093F4
:10092000010180930001809106019091070190934D
:10093000030180930201E114F10409F453CF0E94F2
:10094000000050CF0330110549F10430110509F0C2
:100950008BCF61E08CE00E940B0161E024C060E07D
:100960008CE00E940B0160E08DE00E940B0160E0D2
:1009700080E00E940B0160E081E00E940B0174CFD7
:1009800060E08CE00E940B0160E08DE00E940B01B2
:1009900060E080E00E940B0161E0EECF60E08CE05F
:1009A0000E940B0160E08DE00E940B0161E0F1CF3D
:1009B00060E089E00E940B0161E06ACF61E0F9CF5D
:1009C00084E391E00E94C90195CF80E491E0FACFE1
:1009D00083309105A1F0049709F099CF0E94180384
:1009E0008CE591E004C00E9418038FE191E00E9421
:1009F000C9018DCF0E9418038BE491E0F8CF0E94CB
:100A0000180384E591E0F3CFE1E7F1E0138212826D
:100A10008CE091E09183808382E084838FEF8583F3
:100A200083E0868384E0878385E0808786E0818712
:100A300087E082871386148615861686178681E0DE
:100A40000C947202EE0FFF1F0590F491E02D0994B3
:040A5000F894FFCF48
:100A540001000100010001000000000026038C00D9
:100A6400C601C501547970653A2053696E65005218
:100A74003A31302D313030487A00547970653A5328
:100A8400696E6500547970653A53717561726500D9
:100A9400547970653A547269616E00523A3130305B
:100AA4002D316B00523A312D31306B00523A3130D6
:060AB4002D3130306B0013
:00000001FF
